:020000040000fa
:080000000001040000000000f3
:020000040000fa
:0400080004020000ee
:020000040000fa
:04000c0004020000ea
:020000040000fa
:0400100004020000e6
:020000040000fa
:0400140004020000e2
:020000040000fa
:0400180004020000de
:020000040000fa
:04001c0004020000da
:020000040000fa
:0400200004020000d6
:020000040000fa
:0400240004020000d2
:020000040000fa
:0400280004020000ce
:020000040000fa
:04002c0004020000ca
:020000040000fa
:0400300004020000c6
:020000040000fa
:0400340004020000c2
:020000040000fa
:0400380004020000be
:020000040000fa
:04003c0004020000ba
:020000040000fa
:0400400004020000b6
:020000040000fa
:0400440004020000b2
:020000040000fa
:0400480004020000ae
:020000040000fa
:04004c0004020000aa
:020000040000fa
:0400500004020000a6
:020000040000fa
:0400540004020000a2
:020000040000fa
:04005800040200009e
:020000040000fa
:04005c00040200009a
:020000040000fa
:040060000402000096
:020000040000fa
:040064000402000092
:020000040000fa
:04006800040200008e
:020000040000fa
:04006c00040200008a
:020000040000fa
:040070000402000086
:020000040000fa
:040074000402000082
:020000040000fa
:04007800040200007e
:020000040000fa
:04007c00040200007a
:020000040000fa
:040080000402000076
:020000040000fa
:040084000402000072
:020000040000fa
:04008800040200006e
:020000040000fa
:04008c00040200006a
:020000040000fa
:040090000402000066
:020000040000fa
:040094000402000062
:020000040000fa
:04009800040200005e
:020000040000fa
:04009c00040200005a
:020000040000fa
:0400a0000402000056
:020000040000fa
:0400a4000402000052
:020000040000fa
:0400a800040200004e
:020000040000fa
:0400ac00040200004a
:020000040000fa
:0400b0000402000046
:020000040000fa
:0400b4000402000042
:020000040000fa
:0400b800040200003e
:020000040000fa
:0400bc00040200003a
:020000040000fa
:0400c0000402000036
:020000040000fa
:0400c4000402000032
:020000040000fa
:0400c800040200002e
:020000040000fa
:0400cc00040200002a
:020000040000fa
:0400d0000402000026
:020000040000fa
:0400d4000402000022
:020000040000fa
:0400d800040200001e
:020000040000fa
:0400dc00040200001a
:020000040000fa
:0400e0000402000016
:020000040000fa
:0400e4000402000012
:020000040000fa
:0400e800040200000e
:020000040000fa
:0400ec00040200000a
:020000040000fa
:0400f0000402000006
:020000040000fa
:0400f4000402000002
:020000040000fa
:0400f80004020000fe
:020000040000fa
:0400fc0004020000fa
:020000040000fa
:0401000004020000f5
:020000040000fa
:0401040004020000f1
:020000040000fa
:0401080004020000ed
:020000040000fa
:04010c0004020000e9
:020000040000fa
:0401100004020000e5
:020000040000fa
:0401140004020000e1
:020000040000fa
:0401180004020000dd
:020000040000fa
:04011c0004020000d9
:020000040000fa
:0401200004020000d5
:020000040000fa
:0401240004020000d1
:020000040000fa
:0401280004020000cd
:020000040000fa
:04012c0004020000c9
:020000040000fa
:0401300004020000c5
:020000040000fa
:0401340004020000c1
:020000040000fa
:0401380004020000bd
:020000040000fa
:04013c0004020000b9
:020000040000fa
:0401400004020000b5
:020000040000fa
:0401440004020000b1
:020000040000fa
:0401480004020000ad
:020000040000fa
:04014c0004020000a9
:020000040000fa
:0401500004020000a5
:020000040000fa
:0401540004020000a1
:020000040000fa
:04015800040200009d
:020000040000fa
:04015c000402000099
:020000040000fa
:040160000402000095
:020000040000fa
:040164000402000091
:020000040000fa
:04016800040200008d
:020000040000fa
:04016c000402000089
:020000040000fa
:040170000402000085
:020000040000fa
:040174000402000081
:020000040000fa
:04017800040200007d
:020000040000fa
:04017c000402000079
:020000040000fa
:040180000402000075
:020000040000fa
:040184000402000071
:020000040000fa
:04018800040200006d
:020000040000fa
:04018c000402000069
:020000040000fa
:040190000402000065
:020000040000fa
:040194000402000061
:020000040000fa
:04019800040200005d
:020000040000fa
:04019c000402000059
:020000040000fa
:0401a0000402000055
:020000040000fa
:0401a4000402000051
:020000040000fa
:0401a800040200004d
:020000040000fa
:0401ac000402000049
:020000040000fa
:0401b0000402000045
:020000040000fa
:0401b4000402000041
:020000040000fa
:0401b800040200003d
:020000040000fa
:0401bc000402000039
:020000040000fa
:0401c0000402000035
:020000040000fa
:0401c4000402000031
:020000040000fa
:0401c800040200002d
:020000040000fa
:0401cc000402000029
:020000040000fa
:0401d0000402000025
:020000040000fa
:0401d4000402000021
:020000040000fa
:0401d800040200001d
:020000040000fa
:0401dc000402000019
:020000040000fa
:0401e0000402000015
:020000040000fa
:0401e4000402000011
:020000040000fa
:0401e800040200000d
:020000040000fa
:0401ec000402000009
:020000040000fa
:0401f0000402000005
:020000040000fa
:0401f4000402000001
:020000040000fa
:0401f80004020000fd
:020000040000fa
:0401fc0004020000f9
:020000040000fa
:10020000af8020000e7f24000e0188000000000057
:10021000000020000000e000020032000001200089
:100220002002880014000700790007000000e000a9
:1002300003003a002048200001002000020037009f
:100240000000200001002000810f7000010032003a
:1002500014000700000020000000e000020032004f
:100260000000020000000000160202000000000072
:100270000040da000000fe004440a90020002000f9
:100280000000e00003003200100020009001880010
:100290004440a800000006008a1f78008b1f7800e9
:1002a00000000600a1028800800478000000eb0036
:1002b0001f003700e284440054a0b4009905ba003e
:1002c000e284440054a0b4009906ba00e2844400d9
:1002d00054a0b4000006eb00476fde00fd07b2003b
:1002e000ae018800636ce10003003a00eaff0700fa
:1002f0000000eb000e003700606ce10008003a00df
:10030000004deb000a05e800020039003420ec0043
:100310000af0a0008b05e900f9ff3e000400370059
:100320006168e100010032000086eb000b0007006d
:1003300019c7ba001905ba000e04e00003003a001c
:100340000a00e000dbff3a0000000600fe07b200f2
:10035000ae0288008a047800f5ff37000cd0a300b5
:10036000e20f4d001c00390089027800354dba00bb
:100370000a05e800020039003420ec000af0a00071
:100380008b05e9000f003200254dba000a05e80090
:10039000020039003420ec000af0a0008b05e900cf
:1003a000080032000c00e0000600320015cdba0053
:1003b0000a05e800020039003420ec000af0a00031
:1003c0008b05e9008984e80054a0b4000b00e0002c
:1003d000e2ff3a00000006009902ba00055d7800cd
:1003e0008b05e900f7ff3200c82ade00055d7800c2
:1003f0008b05e900f3ff32000c00e000f1ff320052
:1004000019ddba00eeff37000040da000000fe0000
:0404100000000500e3
:020000040000fa
:100414000000fa0084000700da0007001601070054
:100424000080fa00000006000400fa00f8ff07004c
:100434008000eb000e80e800010878000000eb006b
:10044400000f780001003700000000000000eb00fe
:100454000e0107000004e0000c0032000000000060
:100464000000eb00090107000004e000fcff3a0073
:10047400304080000000a20000f0a7000000ea0065
:100484000000ea004f00de00304088001000200029
:10049400fe0007000004e00016003200d700070049
:1004a400800078000e80e80001087800d30007007f
:1004b400000f78000000000010002000f300070087
:1004c4000004e000fcff3a00404080000000e80027
:1004d4004040880042408000b0aa2a000010b800c2
:1004e4000100d1006300b900000078000000510051
:1004f40040408800304080000000e00007003200e7
:10050400e10f5000d0ff3a002240800011408000eb
:10051400004080008b00070042003700b70007004e
:10052400800078000e80e8000108780040408000d8
:10053400e10f500016003200e10f500003003900b3
:10054400e20f500024003200350037000e80e8002e
:10055400100078001e00100000f0a7000000ea0060
:10056400f90f5000030034000e80e80010007800fa
:1005740001003700004080000040880000408000f7
:100584000001eb008000eb006e0007002400370040
:100594000e80e800100078001e00100000f0a70094
:1005a4000000ea00f90f5000030034000e80e80058
:1005b40010007800010037001040800010408800cf
:1005c400104080000001eb00800078000000eb0088
:1005d4005c000700120037000e80e800100078006d
:1005e4001e00100000f0a7000000ea00f90f500000
:1005f400030034000e80e80010007800010037008a
:1006040020408000204088002040800000017800c5
:100614008000eb000000eb004a000700000000002f
:100624000000000089ff37000000fa006206a800fd
:100634006226a8008ae6a800713f800000f82f0017
:1006440000806000d000b300703f8800713f8000dc
:10065400f00f28008080600000e02000010070009e
:10066400703f8800513f8000f00f280080806000b8
:1006740000f0200001007000503f8800f03f20008f
:10068400a011880090118000f001b300901188003f
:1006940032e2a9008111800000c021000100700035
:1006a400801188008111800080ff2f00008060008d
:1006b4006000b3008011880032c2a800f03f20001f
:1006c400f0118800e0118000f001b300e01188000f
:1006d4003ce2a900d111800000c02100010070009b
:1006e400d0118800d111800080ff2f0000806000ad
:1006f4006000b300d01188003cc2a800f03f200085
:100704004012880030128000f001b30030128800db
:1007140046e2a9002112800000c0210001007000ff
:10072400201288002112800080ff2f0000806000ca
:100734006000b3002012880046c2a8000080fa00be
:10074400000006000600fa00000f78000e80e800a2
:100754000108780064004700020878001e00780051
:10076400b01188000e80e8001000780000128800a4
:100774006400470010007800501288000080fa00de
:10078400000006000000fa00413a8000f0ff230058
:1007940000806000403a880049a7a90000c0eb002f
:1007a4004ae7b700313a8000f0f02f000080600083
:1007b400303a8800513a8000f00f2e00008060002b
:1007c40000c0a000503a8800313a8000f0cf2f00da
:1007d40000806000303a8800413a800030f82f00f1
:1007e40000806000403a88004747a90047e7a80016
:1007f4009206a8000080fa00000006000200fa0039
:100804000000eb00000f780080002000603a8800b0
:100814004627a8000000eb00000f78000100370015
:100824001e0fe800703e20009e007800808f50006c
:10083400fbff34004627a9000000eb00000f7800fe
:10084400010037001e0fe800703e20009e00780073
:10085400808f5000fbff340000000000303a80001d
:10086400610060000000e000fcff3200903880006e
:100874000080fa00000006000000fa006366a80089
:100884006386a8000080fa00000006000200fa0057
:10089400000f78001e0078000000e0000300320022
:1008a400e10f50000a0032001200370021338000ab
:1008b400008020000080600000f0a7000000ea0033
:1008c4000000e9004f00de00004078000a00370015
:1008d40021338000000021000080600000f0a700a8
:1008e4000000ea000000e9004f00de00004078004c
:1008f400010037000040eb000080fa000000060011
:020000040000fa
:100904000608000004000000800000000008000049
:100914000600000082000000ff03ff0003ff030045
:0409240000000000cf
:00000001FF
